{
  "_format": "hh3-artifact-1",
  "contractName": "MyNFTERC721",
  "sourceName": "contracts/erc721/MyNFTERC721.sol",
  "abi": [
    {
      "inputs": [
        {
          "internalType": "string",
          "name": "name_",
          "type": "string"
        },
        {
          "internalType": "string",
          "name": "symbol_",
          "type": "string"
        }
      ],
      "stateMutability": "nonpayable",
      "type": "constructor"
    },
    {
      "inputs": [
        {
          "internalType": "address",
          "name": "owner",
          "type": "address"
        }
      ],
      "name": "ERC721InvalidOwner",
      "type": "error"
    },
    {
      "inputs": [
        {
          "internalType": "address",
          "name": "receiver",
          "type": "address"
        }
      ],
      "name": "ERC721InvalidReceiver",
      "type": "error"
    },
    {
      "inputs": [
        {
          "internalType": "uint256",
          "name": "tokenId",
          "type": "uint256"
        }
      ],
      "name": "ERC721MintExistentToken",
      "type": "error"
    },
    {
      "inputs": [
        {
          "internalType": "uint256",
          "name": "tokenId",
          "type": "uint256"
        }
      ],
      "name": "ERC721NonexistentToken",
      "type": "error"
    },
    {
      "inputs": [
        {
          "internalType": "address",
          "name": "sender",
          "type": "address"
        },
        {
          "internalType": "uint256",
          "name": "tokenId",
          "type": "uint256"
        }
      ],
      "name": "ERC721NotApprovedOrOwner",
      "type": "error"
    },
    {
      "inputs": [
        {
          "internalType": "address",
          "name": "operator",
          "type": "address"
        }
      ],
      "name": "ERC721OperatorIsOwner",
      "type": "error"
    },
    {
      "inputs": [],
      "name": "OnlyOwner",
      "type": "error"
    },
    {
      "anonymous": false,
      "inputs": [
        {
          "indexed": true,
          "internalType": "address",
          "name": "_owner",
          "type": "address"
        },
        {
          "indexed": true,
          "internalType": "address",
          "name": "_approved",
          "type": "address"
        },
        {
          "indexed": true,
          "internalType": "uint256",
          "name": "_tokenId",
          "type": "uint256"
        }
      ],
      "name": "Approval",
      "type": "event"
    },
    {
      "anonymous": false,
      "inputs": [
        {
          "indexed": true,
          "internalType": "address",
          "name": "_owner",
          "type": "address"
        },
        {
          "indexed": true,
          "internalType": "address",
          "name": "_operator",
          "type": "address"
        },
        {
          "indexed": false,
          "internalType": "bool",
          "name": "_approved",
          "type": "bool"
        }
      ],
      "name": "ApprovalForAll",
      "type": "event"
    },
    {
      "anonymous": false,
      "inputs": [
        {
          "indexed": true,
          "internalType": "address",
          "name": "_from",
          "type": "address"
        },
        {
          "indexed": true,
          "internalType": "address",
          "name": "_to",
          "type": "address"
        },
        {
          "indexed": true,
          "internalType": "uint256",
          "name": "_tokenId",
          "type": "uint256"
        }
      ],
      "name": "Transfer",
      "type": "event"
    },
    {
      "inputs": [
        {
          "internalType": "address",
          "name": "to",
          "type": "address"
        },
        {
          "internalType": "uint256",
          "name": "tokenId",
          "type": "uint256"
        }
      ],
      "name": "approve",
      "outputs": [],
      "stateMutability": "nonpayable",
      "type": "function"
    },
    {
      "inputs": [
        {
          "internalType": "address",
          "name": "owner",
          "type": "address"
        }
      ],
      "name": "balanceOf",
      "outputs": [
        {
          "internalType": "uint256",
          "name": "",
          "type": "uint256"
        }
      ],
      "stateMutability": "view",
      "type": "function"
    },
    {
      "inputs": [],
      "name": "collectionOwner",
      "outputs": [
        {
          "internalType": "address",
          "name": "",
          "type": "address"
        }
      ],
      "stateMutability": "view",
      "type": "function"
    },
    {
      "inputs": [
        {
          "internalType": "uint256",
          "name": "tokenId",
          "type": "uint256"
        }
      ],
      "name": "getApproved",
      "outputs": [
        {
          "internalType": "address",
          "name": "",
          "type": "address"
        }
      ],
      "stateMutability": "view",
      "type": "function"
    },
    {
      "inputs": [
        {
          "internalType": "address",
          "name": "owner",
          "type": "address"
        },
        {
          "internalType": "address",
          "name": "operator",
          "type": "address"
        }
      ],
      "name": "isApprovedForAll",
      "outputs": [
        {
          "internalType": "bool",
          "name": "",
          "type": "bool"
        }
      ],
      "stateMutability": "view",
      "type": "function"
    },
    {
      "inputs": [
        {
          "internalType": "address",
          "name": "to",
          "type": "address"
        },
        {
          "internalType": "uint256",
          "name": "tokenId",
          "type": "uint256"
        },
        {
          "internalType": "string",
          "name": "uri",
          "type": "string"
        }
      ],
      "name": "mintOwner",
      "outputs": [],
      "stateMutability": "nonpayable",
      "type": "function"
    },
    {
      "inputs": [],
      "name": "name",
      "outputs": [
        {
          "internalType": "string",
          "name": "",
          "type": "string"
        }
      ],
      "stateMutability": "view",
      "type": "function"
    },
    {
      "inputs": [
        {
          "internalType": "uint256",
          "name": "tokenId",
          "type": "uint256"
        }
      ],
      "name": "ownerOf",
      "outputs": [
        {
          "internalType": "address",
          "name": "",
          "type": "address"
        }
      ],
      "stateMutability": "view",
      "type": "function"
    },
    {
      "inputs": [
        {
          "internalType": "address",
          "name": "from",
          "type": "address"
        },
        {
          "internalType": "address",
          "name": "to",
          "type": "address"
        },
        {
          "internalType": "uint256",
          "name": "tokenId",
          "type": "uint256"
        }
      ],
      "name": "safeTransferFrom",
      "outputs": [],
      "stateMutability": "nonpayable",
      "type": "function"
    },
    {
      "inputs": [
        {
          "internalType": "address",
          "name": "from",
          "type": "address"
        },
        {
          "internalType": "address",
          "name": "to",
          "type": "address"
        },
        {
          "internalType": "uint256",
          "name": "tokenId",
          "type": "uint256"
        },
        {
          "internalType": "bytes",
          "name": "data",
          "type": "bytes"
        }
      ],
      "name": "safeTransferFrom",
      "outputs": [],
      "stateMutability": "nonpayable",
      "type": "function"
    },
    {
      "inputs": [
        {
          "internalType": "address",
          "name": "operator",
          "type": "address"
        },
        {
          "internalType": "bool",
          "name": "approved",
          "type": "bool"
        }
      ],
      "name": "setApprovalForAll",
      "outputs": [],
      "stateMutability": "nonpayable",
      "type": "function"
    },
    {
      "inputs": [
        {
          "internalType": "bytes4",
          "name": "interfaceId",
          "type": "bytes4"
        }
      ],
      "name": "supportsInterface",
      "outputs": [
        {
          "internalType": "bool",
          "name": "",
          "type": "bool"
        }
      ],
      "stateMutability": "pure",
      "type": "function"
    },
    {
      "inputs": [],
      "name": "symbol",
      "outputs": [
        {
          "internalType": "string",
          "name": "",
          "type": "string"
        }
      ],
      "stateMutability": "view",
      "type": "function"
    },
    {
      "inputs": [
        {
          "internalType": "uint256",
          "name": "tokenId",
          "type": "uint256"
        }
      ],
      "name": "tokenURI",
      "outputs": [
        {
          "internalType": "string",
          "name": "",
          "type": "string"
        }
      ],
      "stateMutability": "view",
      "type": "function"
    },
    {
      "inputs": [],
      "name": "totalSupply",
      "outputs": [
        {
          "internalType": "uint256",
          "name": "",
          "type": "uint256"
        }
      ],
      "stateMutability": "view",
      "type": "function"
    },
    {
      "inputs": [
        {
          "internalType": "address",
          "name": "from",
          "type": "address"
        },
        {
          "internalType": "address",
          "name": "to",
          "type": "address"
        },
        {
          "internalType": "uint256",
          "name": "tokenId",
          "type": "uint256"
        }
      ],
      "name": "transferFrom",
      "outputs": [],
      "stateMutability": "nonpayable",
      "type": "function"
    }
  ],
  "bytecode": "0x60a060405234801561000f575f5ffd5b506040516113f63803806113f683398101604081905261002e916100ef565b5f61003983826101d8565b50600161004682826101d8565b50503360805250610292565b634e487b7160e01b5f52604160045260245ffd5b5f82601f830112610075575f5ffd5b81516001600160401b0381111561008e5761008e610052565b604051601f8201601f19908116603f011681016001600160401b03811182821017156100bc576100bc610052565b6040528181528382016020018510156100d3575f5ffd5b8160208501602083015e5f918101602001919091529392505050565b5f5f60408385031215610100575f5ffd5b82516001600160401b03811115610115575f5ffd5b61012185828601610066565b602085015190935090506001600160401b0381111561013e575f5ffd5b61014a85828601610066565b9150509250929050565b600181811c9082168061016857607f821691505b60208210810361018657634e487b7160e01b5f52602260045260245ffd5b50919050565b601f8211156101d357805f5260205f20601f840160051c810160208510156101b15750805b601f840160051c820191505b818110156101d0575f81556001016101bd565b50505b505050565b81516001600160401b038111156101f1576101f1610052565b610205816101ff8454610154565b8461018c565b6020601f821160018114610237575f83156102205750848201515b5f19600385901b1c1916600184901b1784556101d0565b5f84815260208120601f198516915b828110156102665787850151825560209485019460019092019101610246565b508482101561028357868401515f19600387901b60f8161c191681555b50505050600190811b01905550565b6080516111456102b15f395f8181610235015261048e01526111455ff3fe608060405234801561000f575f5ffd5b50600436106100fb575f3560e01c80636352211e11610093578063b88d4fde11610063578063b88d4fde1461020d578063c87b56dd14610220578063df727d3b14610233578063e985e9c514610259575f5ffd5b80636352211e146101cc57806370a08231146101df57806395d89b41146101f2578063a22cb465146101fa575f5ffd5b806318160ddd116100ce57806318160ddd1461017c57806323b872dd1461019357806328d80583146101a657806342842e0e146101b9575f5ffd5b806301ffc9a7146100ff57806306fdde0314610127578063081812fc1461013c578063095ea7b314610167575b5f5ffd5b61011261010d366004610ca0565b61026c565b60405190151581526020015b60405180910390f35b61012f6102bd565b60405161011e9190610cf0565b61014f61014a366004610d02565b61034c565b6040516001600160a01b03909116815260200161011e565b61017a610175366004610d34565b6103a3565b005b61018560025481565b60405190815260200161011e565b61017a6101a1366004610d5c565b610439565b61017a6101b4366004610ddb565b610483565b61017a6101c7366004610d5c565b6104d8565b61014f6101da366004610d02565b6104f2565b6101856101ed366004610e31565b61052a565b61012f610578565b61017a610208366004610e4a565b610587565b61017a61021b366004610e83565b610626565b61012f61022e366004610d02565b61066e565b7f000000000000000000000000000000000000000000000000000000000000000061014f565b610112610267366004610eed565b610743565b5f6301ffc9a760e01b6001600160e01b03198316148061029c57506380ac58cd60e01b6001600160e01b03198316145b806102b75750635b5e139f60e01b6001600160e01b03198316145b92915050565b60605f80546102cb90610f1e565b80601f01602080910402602001604051908101604052809291908181526020018280546102f790610f1e565b80156103425780601f1061031957610100808354040283529160200191610342565b820191905f5260205f20905b81548152906001019060200180831161032557829003601f168201915b5050505050905090565b5f818152600560205260408120546001600160a01b031661038857604051637e27328960e01b8152600481018390526024015b60405180910390fd5b505f908152600660205260409020546001600160a01b031690565b5f818152600560205260409020546001600160a01b03166103da57604051637e27328960e01b81526004810182905260240161037f565b5f6103e4826104f2565b9050336001600160a01b038216148061040257506104028133610743565b61042a576040516322718ad960e21b81526001600160a01b038216600482015260240161037f565b6104348383610782565b505050565b61044333826107ef565b6104725760405163f308413560e01b81526001600160a01b03841660048201526024810182905260440161037f565b61047d838383610859565b50505050565b336001600160a01b037f000000000000000000000000000000000000000000000000000000000000000016146104cc57604051635fc483c560e01b815260040160405180910390fd5b61047d84848484610995565b61043483838360405180602001604052805f815250610ab9565b5f818152600560205260408120546001600160a01b0316806102b757604051637e27328960e01b81526004810184905260240161037f565b5f6001600160a01b03821661055d576040516322718ad960e21b81526001600160a01b038316600482015260240161037f565b506001600160a01b03165f9081526003602052604090205490565b6060600180546102cb90610f1e565b336001600160a01b038316036105bb57604051636517e77760e01b81526001600160a01b038316600482015260240161037f565b335f8181526007602090815260408083206001600160a01b03871680855290835292819020805460ff191686151590811790915590519081529192917f17307eab39ab6107e8899845ad3d59bd9653f200f220920489ca2b5937696c31910160405180910390a35050565b61066785858585858080601f0160208091040260200160405190810160405280939291908181526020018383808284375f92019190915250610ab992505050565b5050505050565b5f818152600560205260409020546060906001600160a01b03166106a857604051637e27328960e01b81526004810183905260240161037f565b5f82815260046020526040902080546106c090610f1e565b80601f01602080910402602001604051908101604052809291908181526020018280546106ec90610f1e565b80156107375780601f1061070e57610100808354040283529160200191610737565b820191905f5260205f20905b81548152906001019060200180831161071a57829003601f168201915b50505050509050919050565b6001600160a01b038083165f90815260076020908152604080832093851683529290529081205460ff161561077a575060016102b7565b505f92915050565b5f81815260066020526040902080546001600160a01b0319166001600160a01b03841690811790915581906107b6826104f2565b6001600160a01b03167f8c5be1e5ebec7d5bd14f71427d1e84f3dd0314c0f7b2291e5b200ac8c7c3b92560405160405180910390a45050565b5f818152600560205260408120546001600160a01b039081169084168114806108315750836001600160a01b03166108268461034c565b6001600160a01b0316145b8061084157506108418185610743565b156108505760019150506102b7565b505f9392505050565b5f836001600160a01b031661086d836104f2565b6001600160a01b03161461089f576040516322718ad960e21b81526001600160a01b038516600482015260240161037f565b6001600160a01b0383166108d157604051633250574960e11b81526001600160a01b038416600482015260240161037f565b6108db5f83610782565b6001600160a01b0384165f908152600360205260408120805460019290610903908490610f6a565b90915550506001600160a01b0383165f908152600360205260408120805460019290610930908490610f7d565b90915550505f8281526005602052604080822080546001600160a01b0319166001600160a01b0387811691821790925591518593918816917fddf252ad1be2c89b69c2b068fc378daa952ba7f163c4a11628f55a4df523b3ef91a45060019392505050565b6001600160a01b0384166109c757604051633250574960e11b81526001600160a01b038516600482015260240161037f565b5f838152600560205260409020546001600160a01b0316156109ff57604051635dadf9e160e01b81526004810184905260240161037f565b5f83815260056020908152604080832080546001600160a01b0319166001600160a01b038916908117909155835260039091528120805460019290610a45908490610f7d565b92505081905550600160025f828254610a5e9190610f7d565b90915550505f838152600460205260409020610a7b828483610fe8565b5060405183906001600160a01b038616905f907fddf252ad1be2c89b69c2b068fc378daa952ba7f163c4a11628f55a4df523b3ef908290a450505050565b610ac333836107ef565b610ae95760405163f308413560e01b81523360048201526024810183905260440161037f565b610af4848484610859565b50610b0184848484610b4d565b61047d5760405162461bcd60e51b815260206004820152601e60248201527f7472616e7366657220746f206e6f6e2045524337323152656365697665720000604482015260640161037f565b5f6001600160a01b0384163b610b6557506001610c80565b5f7f150b7a023d4804d13e8c85fb27262cb750cf6ba9f9dd3bb30d90f482ceeb4b1f90505f5f866001600160a01b031683338a8989604051602401610bad94939291906110a2565b60408051601f198184030181529181526020820180516001600160e01b03166001600160e01b0319909416939093179092529051610beb91906110de565b5f604051808303815f865af19150503d805f8114610c24576040519150601f19603f3d011682016040523d82523d5f602084013e610c29565b606091505b509150915081610c3e575f9350505050610c80565b600481511015610c53575f9350505050610c80565b5f81806020019051810190610c6891906110f4565b6001600160e01b031990811694169390931493505050505b949350505050565b6001600160e01b031981168114610c9d575f5ffd5b50565b5f60208284031215610cb0575f5ffd5b8135610cbb81610c88565b9392505050565b5f81518084528060208401602086015e5f602082860101526020601f19601f83011685010191505092915050565b602081525f610cbb6020830184610cc2565b5f60208284031215610d12575f5ffd5b5035919050565b80356001600160a01b0381168114610d2f575f5ffd5b919050565b5f5f60408385031215610d45575f5ffd5b610d4e83610d19565b946020939093013593505050565b5f5f5f60608486031215610d6e575f5ffd5b610d7784610d19565b9250610d8560208501610d19565b929592945050506040919091013590565b5f5f83601f840112610da6575f5ffd5b50813567ffffffffffffffff811115610dbd575f5ffd5b602083019150836020828501011115610dd4575f5ffd5b9250929050565b5f5f5f5f60608587031215610dee575f5ffd5b610df785610d19565b935060208501359250604085013567ffffffffffffffff811115610e19575f5ffd5b610e2587828801610d96565b95989497509550505050565b5f60208284031215610e41575f5ffd5b610cbb82610d19565b5f5f60408385031215610e5b575f5ffd5b610e6483610d19565b915060208301358015158114610e78575f5ffd5b809150509250929050565b5f5f5f5f5f60808688031215610e97575f5ffd5b610ea086610d19565b9450610eae60208701610d19565b935060408601359250606086013567ffffffffffffffff811115610ed0575f5ffd5b610edc88828901610d96565b969995985093965092949392505050565b5f5f60408385031215610efe575f5ffd5b610f0783610d19565b9150610f1560208401610d19565b90509250929050565b600181811c90821680610f3257607f821691505b602082108103610f5057634e487b7160e01b5f52602260045260245ffd5b50919050565b634e487b7160e01b5f52601160045260245ffd5b818103818111156102b7576102b7610f56565b808201808211156102b7576102b7610f56565b634e487b7160e01b5f52604160045260245ffd5b601f82111561043457805f5260205f20601f840160051c81016020851015610fc95750805b601f840160051c820191505b81811015610667575f8155600101610fd5565b67ffffffffffffffff83111561100057611000610f90565b6110148361100e8354610f1e565b83610fa4565b5f601f841160018114611045575f851561102e5750838201355b5f19600387901b1c1916600186901b178355610667565b5f83815260208120601f198716915b828110156110745786850135825560209485019460019092019101611054565b5086821015611090575f1960f88860031b161c19848701351681555b505060018560011b0183555050505050565b6001600160a01b03858116825284166020820152604081018390526080606082018190525f906110d490830184610cc2565b9695505050505050565b5f82518060208501845e5f920191825250919050565b5f60208284031215611104575f5ffd5b8151610cbb81610c8856fea26469706673582212204ea3ea8a8e205f82eff743a5655154dd809ebd113f8cfef67fed98eeb7e9664c64736f6c634300081c0033",
  "linkReferences": {},
  "deployedLinkReferences": {},
  "immutableReferences": {
    "173": [
      {
        "length": 32,
        "start": 565
      },
      {
        "length": 32,
        "start": 1166
      }
    ]
  },
  "inputSourceName": "project/contracts/erc721/MyNFTERC721.sol",
  "buildInfoId": "solc-0_8_28-a5bbf321777ecaeb8be7e73302e06942eea7d5a7"
}